:1000000000180020C1000000B5260000792600007D
:100010007926000079260000792600007926000064
:10002000792600007926000079260000B526000018
:10003000B5260000792600001139000019390000AA
:10004000B5260000B5260000B5260000B526000044
:10005000B5260000B5260000B5260000B526000034
:10006000E5170000B5260000B5260000B526000003
:10007000B5260000B5260000B5260000B526000014
:10008000B5260000B5260000B5260000B526000004
:10009000B5260000B526000019210000B526000095
:1000A000A12D0000B5260000B5260000B5260000F1
:1000B000B5260000B5260000B5260000B5260000D4
:1000C000F8B502F0FBFA0821474A484B1A60484A43
:1000D000484B1A60484A494B1A60494B1A780A4201
:1000E00002D01A780A431A702A22464B46481A70E0
:1000F00000234649464C1A188A4203D2E558043375
:100100001560F8E70021434B434A934201D202C3F2
:10011000FBE70023414A424958589446985004331B
:10012000C02BF9D100210326FF2580248A083D4BEE
:100130009200D2180B002F003340DB009F40106864
:100140000131B84307002000984003003B4313608F
:100150002029EBD16246344B1A608A22334B1A7045
:10016000334B663A5A707C321A709E3A9979114232
:10017000FCD0102299791142FCD10C209A792C499B
:100180000240082AFAD1053A0A713D324A71203AF2
:1001900099791142FCD0402299791142FCD025492D
:1001A000254A11602021224A117014399A790A4097
:1001B0000C2AFBD1214A224B1A60224A224B1A6098
:1001C0000022224B1A60224B07321A60214A224B2E
:1001D0001A6062B602F0B8FC07F01AF902F074FA7D
:1001E00002F041FAFEE7C046300004F034800440DB
:1001F000823F0000388004400100000F3C80044032
:1002000002D0074000E0074020FDFF1FA0000020B3
:10021000B8A30000A0000020B803002000F9FF1FD1
:100220000000000000E400E008ED00E0005006409F
:10023000004006400000011044800440C000050555
:10024000048004407FBB000014E000E018E000E000
:1002500010E000E00000202020ED00E0FFFFFFFFA5
:10026000FFFFFFFFFFFFFFFFFFFFFFFFFFFFFFFF9E
:10027000FFFFFFFFFFFFFFFFFFFFFFFFFFFFFFFF8E
:10028000FFFFFFFFFFFFFFFFFFFFFFFFFFFFFFFF7E
:10029000FFFFFFFFFFFFFFFFFFFFFFFFFFFFFFFF6E
:1002A000FFFFFFFFFFFFFFFFFFFFFFFFFFFFFFFF5E
:1002B000FFFFFFFFFFFFFFFFFFFFFFFFFFFFFFFF4E
:1002C000FFFFFFFFFFFFFFFFFFFFFFFFFFFFFFFF3E
:1002D000FFFFFFFFFFFFFFFFFFFFFFFFFFFFFFFF2E
:1002E000FFFFFFFFFFFFFFFFFFFFFFFFFFFFFFFF1E
:1002F000FFFFFFFFFFFFFFFFFFFFFFFFFFFFFFFF0E
:10030000FFFFFFFFFFFFFFFFFFFFFFFFFFFFFFFFFD
:10031000FFFFFFFFFFFFFFFFFFFFFFFFFFFFFFFFED
:10032000FFFFFFFFFFFFFFFFFFFFFFFFFFFFFFFFDD
:10033000FFFFFFFFFFFFFFFFFFFFFFFFFFFFFFFFCD
:10034000FFFFFFFFFFFFFFFFFFFFFFFFFFFFFFFFBD
:10035000FFFFFFFFFFFFFFFFFFFFFFFFFFFFFFFFAD
:10036000FFFFFFFFFFFFFFFFFFFFFFFFFFFFFFFF9D
:10037000FFFFFFFFFFFFFFFFFFFFFFFFFFFFFFFF8D
:10038000FFFFFFFFFFFFFFFFFFFFFFFFFFFFFFFF7D
:10039000FFFFFFFFFFFFFFFFFFFFFFFFFFFFFFFF6D
:1003A000FFFFFFFFFFFFFFFFFFFFFFFFFFFFFFFF5D
:1003B000FFFFFFFFFFFFFFFFFFFFFFFFFFFFFFFF4D
:1003C000FFFFFFFFFFFFFFFFFFFFFFFFFFFFFFFF3D
:1003D000FFFFFFFFFFFFFFFFFFFFFFFFFFFFFFFF2D
:1003E000FFFFFFFFFFFFFFFFFFFFFFFFFFFFFFFF1D
:1003F000FFFFFFFFFFFFFFFFFFFFFFFFFFFFFFFF0D
:10040000FFFFFFFFFFFFFFFFFFFFFFFFDEF9FFFF23
:1004100010B5064C2378002B07D1054B002B02D0DA
:10042000044800E000BF0123237010BDA00000209D
:1004300000000000B8A30000084B10B5002B03D04B
:100440000749084800E000BF07480368002B00D1B7
:1004500010BD064B002BFBD09847F9E700000000C9
:10046000A4000020B8A30000A000002000000000AD
:100470008223DB0503600023836003624362C36160
:100480008362C36203630023014A4363426070478F
:100490009A99193F7047FFFF002313B50362436227
:1004A000C3618362C362054B04001B68019301981A
:1004B00005F088F800232063636313BD7C020020ED
:1004C000F0B5264B85B01B68040003930398019296
:1004D000009105F077F8216B061C04F083FE20499B
:1004E00004F0A2FB216A071C009804F07BFEA168BF
:1004F0006062051C04F062FD391C04F05FFDA16A16
:1005000004F01CFA019B071CE362A0622168281C0E
:1005100004F054FD6168051CE060019804F04EFD94
:10052000291C01906061381C04F008FA019904F05C
:1005300005FA04F0DDFF0300FE3302DAFF235B421D
:1005400004E0FF23FE2801DC606300E06363009B9E
:10055000606B2663E36105B0F0BDC0467C020020FD
:1005600000007A44006870478068704740687047B0
:10057000C06870474069704701607047816070478C
:10058000416070470122014B1A707047D100002072
:1005900070B5040008000D0007F08CF82368020015
:1005A00029005B682000984770BD10B5FFF7F0FF89
:1005B00010BD70B50500FFF7EBFF0400280001F047
:1005C000E7FD001970BDFFFF70B5184D184C2B7872
:1005D000002B1CD117492000FFF7EBFF164D01211E
:1005E000280001F040FA032214490E2002F06CF9B1
:1005F000280001F05BF90124114B1870114B280001
:100600001C7001F0FBFC104B188020000DE00F491E
:100610002000FFF7CAFF29780022200001F0CAFD60
:100620000B492000FFF7C5FF002070BD3C010020F2
:1006300014FEFF1FA4920000D400002085050000D6
:10064000D0000020BC000020F8000020B492000080
:10065000D592000070B50125274800F031FE2748EB
:10066000274C28490378002BFCD023782B42F9D063
:10067000254A0B6812689B1A0E2BF3D9234D244987
:100680002800FFF796FF234C200001F056F922497D
:100690002800FFF78EFF200001F096F91F4900287F
:1006A00000D11F492800FFF784FF1E492800FFF7EB
:1006B00080FF200001F0CEFA1B4B3721187020007C
:1006C00001F0BCF912212000494201F0BEF92000DE
:1006D000222101F0C1F92000144901F085F9200020
:1006E000134901F08FF9A1212000C90001F098F908
:1006F000FFF76AFF70BDC04628FDFF1F5F030020A3
:10070000700300207C020020B003002014FEFF1FB5
:1007100023930000D40000203F930000D7920000F4
:10072000F59200000F9300003C01002055FAFFFFF6
:10073000E3020000F7B5294B01901B78002B4CD049
:10074000274D284E28883188274B1C781A00002C0A
:1007500001D18842F9D30023244C1370200001F00A
:10076000A5F8234F3870200001F0FAF83B78288074
:10077000DA0603D48022D200904207D1200001F093
:10078000B3F81C491C48FFF714FF26E09B0724D54B
:1007900032882B88934204D2200001F0E1F82880AF
:1007A000F6E7164FD2B23900200001F0EBF82B88A3
:1007B000328820009B1A2B80114D3A00290001F04D
:1007C00018FB104E2A003100200001F043FB3300DB
:1007D0002A000199200001F089FBF7BDBC00002030
:1007E0003A010020F8000020D1000020D4000020B1
:1007F000D00000205D93000014FEFF1FFA000020CF
:10080000C00000204001002010B568210E4800F013
:10081000F1FFFE220D4B92051A6000225A609A6089
:10082000DA6000230A490B804B808B8009490B80DA
:100830004B808B8008490B804B808B80074B1A6064
:100840005A609A6010BDC046D4000020C00000204D
:10085000EC000020F20000204C01002040010020AC
:100860008162C2627047704710B50400002906DC3F
:10087000836A4942D8B202F06FF8E06A04E0C36AC2
:10088000D8B202F069F8A06AC0B2002102F064F8A0
:1008900010BD10B5040001F00FFC200010BDFFFFDB
:1008A00010B5094C2000FFF745FF0849A06804F087
:1008B00085FB074904F0B8F9064B196804F092FC6F
:1008C000054B186010BDC04658020020000034439C
:1008D000DB0F4940D00100206402002010B5FFF773
:1008E00057FE10BD70B5040001F030FC050020007B
:1008F00001F04EFC281870BD70B50500FFF748FEEA
:100900000400280001F044FC001970BD37B519003F
:100910000500069B2800DBB200930B0001F08EFC63
:100920000400280001F034FC00193EBDF8B5154B59
:10093000154C1F682168381C04F054FC134A144BF2
:10094000051C1B681068181A04F03CFE114904F0DD
:100950006BF9011C281C04F067F90F4B0F49186054
:10096000051C03F09BFF2E1C002800D00B4E0C49E9
:10097000281C03F07FFF002800D0094E094B276098
:100980001E60F8BD64020020C0010020CC010020E0
:100990006C02002000007A44680200200000FA4344
:1009A0000000FAC3A00100203F4BF7B519783F4D76
:1009B0003F4E404F002967D03F4B40491C68201CE8
:1009C00003F06CFF002819D03D49201C03F052FFB2
:1009D000002813D03B4B1B780193002B0ED13A4BD0
:1009E000211C1A683948FFF76BFD06F09DFB6A462B
:1009F000344B1279286069601A703FE03449201C3A
:100A000003F056FF00280DD03249201C03F03CFFB4
:100A1000002807D02B4B1A78002A1FD000222E491D
:100A20001A7017E02549201C03F02EFF002805D17D
:100A30002349201C03F03CFF00281BD0214B1B78CE
:100A4000002B17D101221F4B24491A7000220023CA
:100A50002A606B602248FFF74FFF0FE01749201C08
:100A600003F012FF0028EDD11549201C03F020FFF0
:100A70000028E7D1002200232A606B60286869689B
:100A800006F01CFB010003E0002200232A606B60DB
:100A90003000FFF7E9FE2868696806F00FFB0100E7
:100AA0003800FFF7E1FEF7BD24FDFF1FA80100207D
:100AB00018020020D801002064020020000048C273
:100AC0000000484254020020680200205801002023
:100AD0000000A0C00000A040239400003694000055
:100AE00014FEFF1FF0B5304C85B030492000FFF7F1
:100AF000F5FE2F4B02251B680393039804F062FD5B
:100B00002C4904F091F806F089FB009502000B00D7
:100B1000200001F093FB284E20003100FFF7DEFE9D
:100B2000264B186806F07AFB009502000B002000A7
:100B300001F084FB31002000FFF7D0FE204B2000A5
:100B40001A685B68009501F079FB31002000FFF71F
:100B5000C5FE1C4F3800FFF70BFD06F05FFB00954C
:100B600002000B00200001F069FB31002000FFF7BC
:100B7000B5FE154B186806F051FB009502000B00FE
:100B8000200001F05BFB31002000FFF7A7FE3800DA
:100B9000FFF7F0FC06F042FB009502000B0020007E
:100BA000FFF7B4FE05B0F0BD14FEFF1F4C9400002B
:100BB0007C02002000007A444E9400006402002071
:100BC000A801002058010020A0010020F0B5264C0B
:100BD00085B026492000FFF78FFE254D2B68029334
:100BE000029F2B68234A0393039B234EDB1B9342F4
:100BF0001AD8224B186806F011FB02000B0030686F
:100C0000716804F01DFD306071601D4E0022306877
:100C100071681C4B04F014FD30607160192001F004
:100C200079FFFFF75FFFDCE717492000FFF764FE5D
:100C300030687168124B154D1A685B6805F02CF826
:100C400006F040FB124928602000FFF747FE2868A5
:100C500006F0E4FA0B000221020000912000FFF7E9
:100C600055FE05B0F0BDC04614FEFF1F50940000B5
:100C70007C0200200F2700001002002064020020E8
:100C8000980100200000F03F60940000D001002097
:100C90006C940000F7B50121112001F0DFFD012166
:100CA000102001F0DBFD0121172001F0D7FD01210B
:100CB000162001F0D3FD01210D2001F0CFFD01210F
:100CC0000D2001F0ABFD294C29492000FFF714FE4F
:100CD000FFF7C0FC274D2849284A280001F092F967
:100CE000C8212B682971002B15D02548254A1B18CF
:100CF0001B11D154107853782349244A984205D8BF
:100D00000B6800041A4002430A6004E008681B04F0
:100D1000024013430B601E4E33680093009F3368FC
:100D20001C4A0193019BFB1A934205D8FFF7DAFE98
:100D3000322001F0EFFEF2E717492000FFF7DCFD5B
:100D4000FFF744FF15492000FFF7D6FDFA204000C9
:100D500001F0E0FE280001F0AFF911492000FFF793
:100D6000CBFD00210D2001F059FDF7BD14FEFF1F42
:100D70009594000070020020A1080000FF9E24004E
:100D8000008FFCBF94FDFF1F14E400E0FFFF00FF95
:100D90007C020020DF2E0000A0940000B19400002F
:100DA000C7940000F0B58FB002F0FAFBA44C011E0E
:100DB00009D002F0ADFBC1B2200001F0B9FB022066
:100DC00001F0A8FEF0E7A368002B00D135E1200078
:100DD00001F0DCFB03789B4D232B00D01CE10122AA
:100DE00021000AA801F01CFC0AA9200001F05EFB0A
:100DF0000AA801F0D9FAA3680122591E200001F0C7
:100E000016FC91492800FFF769FD21002800FFF733
:100E100069FD8E4902A801F00BFB02A9200001F038
:100E2000A9FB002800D000E1894906A801F000FBD9
:100E300006A9200001F09EFB012600280DD185495E
:100E40000AA801F0F5FA0AA9200001F093FB461E5A
:100E5000B041C6B20AA801F0A7FA06A801F0A4FAA8
:100E600002A801F0A1FA002E06D001227A4B7B489D
:100E70001A70FFF711FBD3E0794902A801F0D8FA04
:100E800002A9200001F076FB002800D0D1E07549CE
:100E900006A801F0CDFA06A9200001F06BFB01269F
:100EA00000280DD170490AA801F0C2FA0AA9200051
:100EB00001F060FB461EB041C6B20AA801F074FA08
:100EC00006A801F071FA02A801F06EFA002E08D00F
:100ED000002200200021604B1A70644B186059609A
:100EE0009EE063490AA801F0A3FA0AA9200001F0D4
:100EF00041FB06000AA801F057FA002E1DD003227C
:100F000021000AA801F08CFB0A9806F067FA060097
:100F10000F000AA801F048FA3900300006F0D2F9B3
:100F20004E4E011C3000FFF727FB52492800FFF707
:100F3000D5FC3000FFF716FB2AE04F490AA801F064
:100F400077FA0AA9200001F015FB06000AA801F0B3
:100F50002BFA002E26D0032221000AA801F060FB04
:100F60000A9806F03BFA06000F000AA801F01CFAE6
:100F70003000390006F0A6F9384E011C3000FFF7AA
:100F8000FDFA3E492800FFF7A9FC3000FFF7ECFA14
:100F900006F044F90B000200052100912800FFF73C
:100FA000B5FC3DE036490AA801F042FA0AA9200042
:100FB00001F0E0FA06000AA801F0F6F9002E22D0AE
:100FC000032221000AA801F02BFB0A9806F006FA7A
:100FD00006000F000AA801F0E7F93000390006F01A
:100FE00071F91E4E011C3000FFF7CAFA254928008E
:100FF000FFF774FC3000FFF7B9FA06F00FF90B00A9
:1010000002000721C9E720492800FFF767FC2100FB
:101010002800FFF767FC03E01C492800FFF76CFC81
:101020001B49200001F04AFA07E002A801F0BCF9D0
:101030001BE702A801F0B8F94AE70FB0F0BDC046BF
:10104000B001002014FEFF1FD3940000E8940000BC
:10105000EE940000AE94000024FDFF1F5801002014
:10106000F4940000F9940000FE940000A801002010
:1010700002950000059500000F95000012950000F4
:101080001C9500001F950000299500003C9500006C
:101090001294000037B51C4B1C4D1B681C4C01936F
:1010A000019B2A6823609A4203D0FFF7F9FB23686B
:1010B0002B60184D23682A689B1A042B03D9FFF76D
:1010C00035FC23682B60144D23682A689B1A092B72
:1010D00003D9FFF769FC23682B60104A2168136865
:1010E000CB1A642B02D91160FFF75CFE0C4A216811
:1010F0001368CB1A322B06D90A4B1B78002B02D06F
:101100001160FFF7EFFC37BD7C0200205401002086
:101110006C020020CC010020A4010020500200201D
:101120009001002024FDFF1FF8B51E4D1022112153
:101130002800FFF795FB1C4C1C4E220031002800B4
:1011400002F09EFC1A4D162217212800FFF788FB9B
:1011500022003100280002F093FC164D8027280061
:10116000FFF786F9280000252200134902F088FCC9
:10117000124E1348220031000560077102F080FC16
:101180001048220031000560077102F079FC0E4E14
:101190002900300001F04CF9300022000B4902F028
:1011A0006FFCF8BDD801002020FDFF1F670800007C
:1011B0001802002058010020950400009308000048
:1011C00070020020C4010020B0010020A92300000B
:1011D000002070470300383039331B780078181A24
:1011E000704702000100383239311378097899428A
:1011F00004D9591C1170C318187E01E00120404227
:10120000704703000200383339321B7812789A4253
:1012100002D9C318187E01E0012040427047704790
:101220000300002210B55E331B8893420DD00400EA
:101230005D342378202B02D90123037105E05A1C69
:1012400022700122C3183B331970100010BD70B515
:1012500014000200030000205E321288824212D085
:101260001D0021225D352878121A944202D90124EA
:101270001C7114003B331818220006F024F92000DA
:101280002B781B192B7070BD43691A685B68126854
:1012900013420FD0084A0369914201D81F2205E08A
:1012A000064A914201D8122200E002225A7002221C
:1012B00003699A717047C0467F1A06003F420F00CB
:1012C0000200F8B500230400383213705370243242
:1012D00093701370537043668366D37040696427BC
:1012E000016842680D682A430A60226915499370B3
:1012F00023000C22613360691E788619337A5343C8
:10130000CB185D68737BE0261B02F60033403B433D
:101310002B60230062331B78C018837C5A43C37D43
:1013200089181B024A681E403E4316600649200089
:10133000FFF7AAFF202322695371802223699A7044
:10134000F8BDC046889D0000A0860100102270B53F
:1013500003690400DD78EDB2154203D140222A4032
:1013600004D12BE0DA706B06F8D476E004231D403C
:101370003A4B1BD0250000225D352A701A70636E2F
:10138000934200D0984723002A783B33002A02D1A9
:10139000012129701A70D02221698A701B78226974
:1013A0001371230001225C331A7053E001221A707A
:1013B000230039331D702269C02330E06021206989
:1013C0008379DBB2194060290CD140398B4383719A
:1013D000A36E002B06D0210038310A70220039326A
:1013E000107898471023226991780B401BD0012375
:1013F0001D4013D1210020005C315D300B78007856
:10140000984206D9581CE31808703B331B781371B7
:1014100000E01571D023226993701BE0C023937004
:1014200023691B7916E0210060310B70202193792C
:101430000B4321009371236939311A790B78D2B2A9
:101440001F2B07D805480078002803D0581CE31844
:1014500008701A7602222369DA7070BD78020020C3
:10146000F0B500210400334B85B01B680293029B4A
:10147000019320202269D378034257D02D4B019845
:101480001B680393039B1B1A0F2BF2D9002945D12C
:101490002500613562692B780531D318187A01F07F
:1014A000DDF92B7862690121D3189F7C0926380069
:1014B00001F0D4F90021380001F0B0F95023013BCC
:1014C000FDD10121380001F0A9F95023013BFDD1E4
:1014D000013E002EEED10C2166692B78164DF318D3
:1014E0001A7A64204A43AA185768E0225B7BD2002C
:1014F0001B02134003433B60230062331B78F61842
:10150000B37C59436D18F17D6B6809020A401043A2
:101510001860A023013BFDD10121AAE7102BA8D020
:1015200000209070802223699A7000E0012005B0AD
:10153000F0BDC0467C020020889D00001223026995
:10154000F0B5D370202287B0036901919D78040023
:10155000154002D094329A700BE0FFF781FF030030
:101560000420002B62D023005F331D70B02322695A
:10157000937020262E4B20691A680292029DC27831
:10158000324048D0002202252026009222005D32FF
:10159000127800998A4233D962183B321278216955
:1015A0000A711A6821690592059A9446CA78D2B2DE
:1015B00017002F400AD1324208D060461A680492C0
:1015C000049A121A052AF1D98F702BE01020CD70E1
:1015D0002169CA78D2B2024201D1324203D18023BA
:1015E00004208B700DE0012100980A4204D0434290
:1015F00058410323181A07E00130C2B20092C5E730
:101600000020019B002B02D08023226993700023CD
:101610005E3423700AE0196803910399491B042979
:10162000ADD982708022042023699A7007B0F0BD82
:101630007C020020F0B516008BB00200019300235D
:101640003832137001321370009202691233D37072
:101650002022036905009C780F00144002D09432C8
:101660009A700AE0FFF7FCFE002800D1B4E02B00DE
:101670005F331C70B0232A69937020229446584926
:101680000B68029302982B696246DC7814400A00CA
:10169000002C06D10A680392039A121A042AF3D97D
:1016A00012E001217F000F43FFB21F710227136870
:1016B000049304982B69DC783C4009D111680591AA
:1016C0000599091A0529F6D99C702B69802211E029
:1016D0000222DA702B690F32DC78144003D06F32AB
:1016E0009A70002478E0002E06D10199802200290A
:1016F00000D120329A706FE0A822012E00D0A022E3
:101700009A7002222B6994461B79002334492A6976
:101710000868012E28D00690069F6446D0782040A5
:1017200006D10C680794079CE41B052CF5D927E02B
:1017300002211020D1702969CA78D2B202424AD15E
:101740000018024247D0013EF6B2012E01D1A82274
:101750008A702A691F2B05D81279591CEB181A7642
:10176000CBB2D3E71279D1E702270890089ED07850
:10177000384007D10C680994099CA41B052CF6D9A4
:10178000907023E002211020D1702969CA78D2B26A
:10179000024209D0C8705022013AFDD129690838A7
:1017A0008A7882438A7016E01C00920614D5B02213
:1017B0008A702A691F2B05D81279591CEB181A76E2
:1017C000CBB200E01279019A002A02D080212A6966
:1017D0009170009A13701C0020000BB0F0BDC04641
:1017E0007C02002010B50248FFF7B0FD10BDC046D6
:1017F00028FDFF1F0170704710B50A0000781921FD
:1018000002F01EFA10BD07B50323007805220091EF
:101810001A2102F03DFA07BD07B503230078022222
:1018200000911A2102F034FA07BD07B502230078AF
:10183000042200911B2102F02BFA07BD07B50223F9
:101840000078042200911C2102F022FA07BD10B595
:101850000A0000781F2102F0F3F910BD10B50A004C
:101860000078202102F0ECF910BD10B50A000078D4
:10187000212102F0E5F910BD10B50A0000782221FF
:1018800002F0DEF910BD10B5032906D80323594331
:101890002531C9B2007802F0D3F910BD10B50A00A5
:1018A0000078382102F0CCF910BDFFFF10B504001C
:1018B000044B421C1B883A21007802F07DF96078C5
:1018C00010BDC046CAFEFF1F10B50B0000780622EF
:1018D0006A2102F0BDF910BD10B50B000078052299
:1018E0006A2102F0B5F910BD10B50123007802227B
:1018F0006A2102F0ADF910BD012310B51A0000787D
:101900006A2102F0A5F910BD10B501230078072265
:101910006B2102F09DF910BD10B50B000078062276
:101920006B2102F095F910BD07B503230078022260
:1019300000916B2102F0ACF907BD10B50400012144
:10194000FFF7F2FF20000021FFF76FFF20000021CA
:10195000FFF774FF00212000FFF7DEFF10BDFFFF3F
:1019600013B50400064A431C1288007872210092C5
:10197000022202F091F86078A3780002184316BDA5
:10198000CAFEFF1F07B50B00002A07D004490078E4
:1019900009880091742102F07FF800E00A7007BD09
:1019A000CAFEFF1F13B50400064B00781B88752183
:1019B0000193631C009306231A0002F004F9607877
:1019C00016BDC046CAFEFF1F10B5FFF7EBFF343847
:1019D00043425841C0B210BD002210B50B00007840
:1019E000110002F035F910BD70B50C000500FFF7CD
:1019F000D9FF0621372800D971312878A2B202F028
:101A00009DF970BD70B50C000500FFF7CBFF0821F4
:101A1000372800D972312878A2B202F08FF970BD50
:101A200070B50C000500FFF7BDFF0A21372800D96B
:101A300073312878A2B202F081F970BD10B58AB274
:101A40000078132102F07AF910BD10B58AB200783F
:101A5000152102F073F910BD10B58AB20078172174
:101A600002F06CF910BD10B50B00007807226A2156
:101A700002F0EEF810BD10B50123007803226A21B0
:101A800002F0E6F810BD10B51F242140002B01D054
:101A900020231943002A01D0402319430A0000786B
:101AA0006D2102F0CDF810BD10B50A0000786E214E
:101AB00002F0C6F810BDFFFF10B50400044B421C35
:101AC0001B886F21007802F077F8607810BDC0465F
:101AD000CAFEFF1FF0B58BB0059310AB1F7811AB9A
:101AE0001B780500089312AB1B780991079300231C
:101AF000069205991A00FFF7C6FF39002800FFF784
:101B0000D3FF00230493089B002B03D0102005F083
:101B1000A5FC049000230393079B002B03D0102007
:101B200005F09CFC03900026069B9E4264D2102484
:101B3000069A3319934201DD941BE4B280235B00C3
:101B4000DB1B9C4201DD7C42E4B2079B002B0AD0E8
:101B50000023DAB2944209D9099A03999219D25C06
:101B6000CA540133F5E7099B9B190393039B28781B
:101B700022006F2102F040F8089B002B24D0049B28
:101B8000002B21D0002305991A002800FFF77BFFC6
:101B900039002800FFF788FF1F4B22001B886F21A8
:101BA00000932878049B01F077FF220004990398A2
:101BB00005F07AFC002807D00024049805F058FCB2
:101BC000079BA34225D021E033199EB2069B3C1906
:101BD000E7B2B342A8D9002F03D1059B0133DBB292
:101BE00005930023059928001A00FFF74CFF3900E0
:101BF0002800FFF759FF97E7089B002B02D00498B5
:101C000005F036FC079B0124002B02D0039805F059
:101C10002FFC20000BB0F0BDCAFEFF1F7FB50126D0
:101C200008AC09AD24782D78029601950094FFF751
:101C300051FF04B070BD10B50A000078702101F0AA
:101C4000FFFF10BD10B50A000078712101F0F8FF08
:101C500010BDFFFF70B5040086B0FFF755FE1E20D3
:101C600000F058FF00212000FFF756FE012310214D
:101C70001A002000FFF707FF06212000FFF714FFDE
:101C8000494D4A492800FEF794FC49492800FEF7CF
:101C90007FFC2000FFF710FF0100280000F0B8FAD9
:101CA000280000F075FA43492800FEF782FC002363
:101CB000002501261A0019002000FFF7E4FE7F220C
:101CC00000212000FFF7DFFD00212000FFF704FEC8
:101CD000682200212000FFF7D6FD2000FFF70CFE50
:101CE000142000F017FF03212000FFF71DFE122132
:101CF0002000FFF7D3FD04212000FFF77DFD012127
:101D00002000FFF780FD03212000FFF785FD032160
:101D10002000FFF78AFD019600952B00264A2749EF
:101D20002000FFF77BFFA8423BD0162305A94E7089
:101D30000D700093143B1A00019602952000FFF7E6
:101D4000C9FE03212000FFF776FF29002000FFF7DE
:101D500079FF29002000FFF73FFE02212000FFF756
:101D600076FD9C212000FFF780FD50212000FFF729
:101D700075FD29002000FFF77FFD31002000FFF7EF
:101D8000A3FD2000FFF777FE29002000FFF76BFE80
:101D90002A232000A382FFF7A7FD2000FFF786FD7E
:101DA0002E00300006B070BD14FEFF1F909500009D
:101DB000AE950000C895000089070000F09500006E
:101DC000002A00D10269137850781B0203430B806C
:101DD000137950791B0203434B80137A507A1B020C
:101DE00003438B80137B527B1B0213430020CB8069
:101DF000704737B50C006946FFF7E2FF051E27D193
:101E00006B460020185E03F095FBE221890503F084
:101E1000D5F86B4620600220185E03F08BFBE221B0
:101E2000890503F0CBF86B4660600420185E03F070
:101E300081FBE221890503F0C1F86B46A060062012
:101E4000185E03F077FBE221890503F0B7F8E06044
:101E500028003EBDF7B55568D46893680F00281C6C
:101E6000211C1668009303F0A9F800990190301C1A
:101E700003F0A4F8011C019803F0B4F9011C02F06E
:101E80005DFD311C3860281C03F098F80099019022
:101E9000201C03F093F8011C019802F04FFD011C77
:101EA00002F04CFD311C7860301C03F087F8291CCF
:101EB000061C281C03F082F8011C301C03F092F968
:101EC0000099051C081C03F079F8011C281C03F07C
:101ED00089F9211C051C201C03F070F8011C281C2A
:101EE00002F02CFDB8600020FEBDFFFFF0B51D0024
:101EF0005368160085B0181C0C00191C009302F0E2
:101F00001DFD37680290391C381C02F017FD011CBA
:101F10000390381C03F052F80299071C009803F054
:101F20004DF8011C381C02F009FDFE21890503F063
:101F300059F905F073F900900191B168029803F026
:101F40003DF8F168071C039803F038F8011C381CB1
:101F500003F048F905F062F9009A019B01F0F6FEE2
:101F600005F0B0F92060286805F058F90F0069689D
:101F7000AB680600081C009303F020F8009902905B
:101F8000081C03F01BF8011C029802F0D7FC05F0B6
:101F900045F901F0DFFE02000B003000390001F0CE
:101FA000D5FE05F08FF96060A86805F037F90600E6
:101FB0000F00686805F032F932003B0001F0C6FE00
:101FC00005F080F9A0600021A86802F053FC002809
:101FD0000DD065680021281C02F060FC291C002837
:101FE00001D0044800E0044803F0FCF860600020E1
:101FF00005B0F0BDDB0F4940DB0F49C0808A704758
:102000007047FFFF036870B5002B04D000249C606C
:102010000134DC6018E080251D4C2D0423682B431F
:102020002360C04601241B4B1C601B4B1B4C0360F0
:1020300003689D68002D07D010330360A342F7D9D1
:1020400000230360180022E00468154B226003227D
:10205000E3181B11134D9E00A2607151124A0179C1
:102060001248D15411785378114A994205D803681F
:1020700009041A400A43026004E001681B040A4094
:1020800013430360802201200A4BD2031A6070BD03
:102090003C80044000700340007103401F71034006
:1020A000008FFCBF98FDFF1F94FDFF1F14E400E0AC
:1020B000FFFF00FF00E100E0026830B5002A1ED0FB
:1020C0000F4B1049D3181B110F4D9C006550002178
:1020D00091600E4AFF31D154117853780C4C0D4A5F
:1020E000994205D8236809041A400A43226004E093
:1020F00021681B040A40134323600023036030BDA2
:10210000008FFCBF98FDFF1F0120000094FDFF1F02
:1021100014E400E0FFFF00FF094B10B51A68002A25
:1021200004D001221A60074B1B689847064B1A68B7
:10213000002A04D001221A60024B5B68984710BD48
:102140000C71034098FDFF1F1C710340F0B5002582
:1021500006000F008DB08C680195002C14D0212250
:102160002B0003A9380000F01FFA2200202C00D910
:102170002022336803A95B683000AD18A41A984781
:10218000019B1B180193E8E701980DB0F0BDFFFF1C
:1021900037B5022504002A00054901A805F093F986
:1021A00023682A005B6801A9200098473EBDC0460D
:1021B000799D0000F0B50D000F2185B09446134ABB
:1021C0006944ACB22F0C574301345443BBB2260CC4
:1021D0001C19A4193B0C240CDB19E3180A245B0816
:1021E0005C432D1B303501390D701D1EE9D163464E
:1021F000002B02D02D2301390B70CA4304ABD21837
:1022000003685B68984705B0F0BDC04633330000F3
:1022100037B50F2502AB0A002A401400013B3734C2
:10222000092A01D8303214001C700909F3D1016861
:1022300002AA4C68D21A1900A0473EBDF0B51C0096
:1022400089B00EAB1B78019002932100230010008F
:10225000150004F013FF4B49002814D10122660039
:1022600076085242484B2800310004F007FF00284E
:102270000ED10122444B52422800310002F0CAFA2A
:10228000002805D141490198FEF782F9040076E063
:10229000E0223F4B12062800210002F0C5FA002878
:1022A00001D03C49EFE7E0223B4B12062800210019
:1022B00002F0A6FA0028F4D1002200232800210011
:1022C00002F09EFA071E03D0802301271B06E418A4
:1022D000002600203149029B9E4207D0A022304BAD
:1022E000120604F0FDF8731CDEB2F4E702000B00E6
:1022F0002800210003F0A4F90290039102F000FBF2
:102300003A00010005000198FFF754FF0400002E79
:1023100035D0280004F04AFF02000B000298039910
:1023200004F058FB2E2304AA1370321C0F2E00D980
:102330000F220025D3B2029300221A4B04F0D0F8EA
:102340000F00060002F0DCFA04AAC0B2AB180200CB
:1023500030325A7004F0E8FE0B0002003900300001
:1023600004F038FB029B0135AB42E5D11A00019B1A
:1023700001321B68D2B25B6804A90198984720001B
:1023800009B0F0BD7B9D0000FFFFEF7F839D000043
:10239000FFFFEF417F9D0000FFFFEFC10000E03F26
:1023A0009999B93F0000244010B50400006805F079
:1023B0005FF8200010BD70B504000D000068013109
:1023C00005F054F9031E01D0012028C470BD4368F4
:1023D00010B504008B4208D2FFF7EDFF002805D0AE
:1023E000A368002B01D122681370012010BDF8B53D
:1023F00004000F00151E05D10368002B00D01A70D1
:1024000000230CE01100FFF7E2FF061E09D120684F
:10241000002802D005F02CF8266000236360A3603A
:1024200004E0A5603900206805F03CF92000F8BD03
:10243000002370B504000D000360436083600373E4
:10244000994207D0080005F035F929000200200064
:10245000FFF7CDFF200070BD70B5050008000C002F
:1024600005F028F9210002002800FFF7C0FF70BD29
:1024700070B5050000680C0000280CD06B688A68F5
:10248000934206D3096805F00DF9A368AB600023F9
:102490000AE004F0EDFF23682B6063686B60A368BB
:1024A000AB60002323606360A36070BD10B50400BF
:1024B000884201D0FFF7DCFF200010BD10B50400FA
:1024C000002902D0FFF7C8FF00E08160200010BDA6
:1024D000F7B517000022036804000E00856800921B
:1024E0008B4206D85A19914203D2CB1A0193012389
:1024F0000093002F1AD0ED1929002000FFF767FF85
:10250000002813D0009BA0682168002B09D0019BF4
:1025100008183A00C91804F0D6FF00232268535562
:1025200003E00818310005F0BDF8A5602000FEBDED
:10253000002213B5040001AB19705A701900013262
:10254000FFF7C6FF200016BD70B5836814008A68C7
:102550009D1A0023A5420BD30068984208D0096851
:10256000994205D0001905F0ACF843424341DBB273
:10257000180070BD836810B59C468B6800229C458E
:1025800002D3FFF7E1FF0200100010BD83688B4209
:1025900003D903685818002B02D1002301480370A7
:1025A0007047C0467902002070B50D00002A14D093
:1025B000002912D08168994202D800232B700CE0C8
:1025C000541EC91A8C4200D90C0001682200C91897
:1025D000280005F088F800232B5570BDF8B50500DC
:1025E0000E009A4202D911001A000B000021A960C6
:1025F000297329606960B1688A420FD81C008B4238
:1026000000D90C000021336828001B191F781970AD
:1026100033689918FFF752FF33681F552800F8BD3B
:1026200010B504008B68FFF7D9FF200010BD130020
:10263000826810B504008A4213D9002B11D0C81843
:10264000824200D2531A2068D21A5B18C318A260C3
:102650004018521A190004F03FFF00232268A168B5
:102660005354200010BD10B5FEF714FBFEF712FD09
:1026700001F0B2F8FAE7FFFF70B580258026ED0281
:10268000F6000B4C23682B4201D000F089FB236835
:10269000334201D000F00EF823681B0501D500F08D
:1026A00009F82368DB04ECD500F004F8E9E7C0463C
:1026B0003480044010B5FFF7DFFFFFFF0022014B1D
:1026C0001A607047008104407047FFFF0A49030009
:1026D00010B50868002B0DD06A46084CC3181219B3
:1026E000934206D304F08EFE0C2303600120404287
:1026F00000E00B6010BDC046A0FDFF1F00FEFFFF05
:10270000F8B506000D00170000243900300001F074
:1027100071FF0B003733DBB2092901D83031CBB25E
:1027200030002B55390001F0DFFE061E01D00134C8
:10273000EBE72B1958702B005A1B944206DD1A78D0
:10274000295D19702A550133013CF5E72800F8BDD1
:102750007047FFFF074B70B51D681D60064BDA68B8
:102760001C00AB0700D5904723696A0700D598473E
:1027700070BDC046A0900440A8FDFF1F244B70B55B
:102780001D68244C1D60636A2A0700D59847A36A18
:10279000EA0600D59847E36A6A0600D59847236B96
:1027A0002A0600D59847636BAA0600D59847E36BC5
:1027B000EA0700D59847A36DAA0700D59847E36DAF
:1027C0006A0700D59847144B1D681D60A368EA0787
:1027D00000D5984763692A0600D59847A369EA0699
:1027E00000D59847E3696A0700D59847236A2A0706
:1027F00000D59847A36BAA0700D59847236DAA0672
:1028000000D59847636D6A0600D5984770BDC046ED
:10281000A0B00440A8FDFF1FA0C0044010B51A28B6
:1028200018D80C2358430C4A835810181C7D027A80
:10283000224205D0002901D01A710BE01A7209E07A
:1028400043681A68002902D003210A4301E00221EB
:102850008A431A6010BDC046889D0000F0B51A2852
:102860002FD80C2217004743164CE5196B68260039
:10287000012901D0042911D1504334583018257D45
:10288000027A20202A432275A22252001A601A6876
:10289000042901D1024313E0824311E038592C7A14
:1028A000027DA24302758022002908D0022902D1AC
:1028B0000422FF3204E00022032901D181225200C8
:1028C0001A60F0BD889D0000F8B505000F001A28B9
:1028D00034D8042A32D8100001F0F2FD07090503AC
:1028E0000B00092406E00A2404E0082402E00C247A
:1028F00000E00B240C236B43114A2404D3185E68B8
:10290000E0233168DB00194002D12800FFF7A6FF61
:102910000C4B0D491A00B83211600C4ABC331A60D6
:1029200072B60B4B3268AD001A4080235B043260F4
:102930001343084A1C43AF50346062B6F8BDC0462A
:10294000889D000000F9FF1F552700007D2700002B
:10295000FFFFF0FFA8FDFF1F70B5434B04001A28CE
:102960000ED11B780B2B03D80C22D31A994003E00D
:102970000C2B01D00C3B1941080001F01DF872E04E
:1029800001251A782B009340002901DC002102E088
:102990008B4205D829002000FFF740FF29005FE0A7
:1029A0002300103B0338012B01D8304B05E0C3B2A4
:1029B000012B01D82E4B00E02E4B1B6801334B43FB
:1029C000D340142843D801F07BFD353B421F4242DF
:1029D000151A4242424242292F424224420B100021
:1029E000254A1360254A264B2FE0264A1360234AC6
:1029F000254B2AE0254A1360204A254B25E0254A2D
:102A000013601E4A244B20E0244A13601B4A244BC7
:102A10001BE0244A1360194A234B16E0234A136033
:102A2000D122234B920010E0224A1360D122224B84
:102A300092000AE0214A1360D122214B920004E067
:102A4000204A1360D122204B92001A600BE0012330
:102A50007F2900DC0023D9B22000FFF7DFFE01212F
:102A60002000FFF7FBFE70BDA4FDFF1F0890034090
:102A700008A0034008800340108003404404000085
:102A800004B004401880034008B004402080034094
:102A90000CB004402880034010B004403080034054
:102AA00010C004403880034014C00440109003401C
:102AB00000A004401890034004A0044010A003406C
:102AC0000490044018A003400890044072B60C4BD8
:102AD0001A680C4B18680C4B1B6862B65B0104D576
:102AE000322393429B415B42C018084B9A1A084B11
:102AF0005A43FA239B005843920D10187047C04662
:102B000018E000E07C02002004ED00E07FBB000044
:102B10005555010070B50400FFF7D8FF0500002CE3
:102B20000FD0FFF7D3FF074B401B984206D9013C5B
:102B3000002C06D0FA239B00ED18F2E700F04CFEC3
:102B4000EFE770BDE703000080221E4BD20510B5F1
:102B50001A608022002012061A601B4B1B49186065
:102B60001B4B1C4A1960282313601B4A1B4C136023
:102B70001B4A13601B4A13601B4A13601B4A1360F5
:102B8000092222601A4C20601A4C21601A4C2360E2
:102B90001A4C23601A4C22601A4C20601A480160BB
:102BA0001A490B601A490B601A4B1A6000F0BCFE00
:102BB0001920FFF7AFFF00F0E9FB1420FF30FFF70B
:102BC000A9FF10BD00E100E004800340FFBF00004A
:102BD000088003400C8003401480034000800340C1
:102BE0001C800340248003402C8003403480034039
:102BF00004900340089003400C900340149003405D
:102C00000090034004A0034008A003400CA0034030
:102C100014A0034000A003400223F0B50A4A0B4E63
:102C20001478C8272343DB00F51868600848057846
:102C3000002D00D1403F09040F43F75001235D40B0
:102C40005C4005701470F0BDE802002000F8FF1F22
:102C500060030020431E10B50020032B0ED872B66F
:102C6000074A99008858002807D044685B008C50B8
:102C7000044904885A5A121B5A5262B610BDC04603
:102C8000D8020020A0030020431E0020032B09D8F7
:102C900072B6054A9B009B58002B02D001305B683E
:102CA000FAE762B67047C0462C030020F8B572B64A
:102CB0000123174A082594461E00164964465A1EE9
:102CC000A25C2A421AD05F017C589A00002C05D1E0
:102CD000CB1908305860104BCB5109E03243D20079
:102CE0005458002C0AD18B18083058600B4B8B506D
:102CF0000B4A1378013B137062B608E00133052BD1
:102D0000DCD162B60022064B1A7000F0D9FBF8BD88
:102D1000F49E000000F8FF1F88004000C80040003B
:102D200056030020421E10B5032A30D8022380002B
:102D30001843174BC0001B1872B6164CA05C032832
:102D40000BD801F0BDFB16040207052012E0083382
:102D500002200FE0083304200CE00F4892001458C2
:102D60000E4B002C01D1115001E098584160995050
:102D70000CE00320A0540A0008325A60C822180749
:102D800000D4403A098809040A431A6062B610BDAB
:102D900000F8FF1F940200202C0300203C030020B9
:102DA000F7B5B94B1C781D000423E4B21C421DD0BA
:102DB000B64B1B78002B16D0B54A1378DBB2002B2C
:102DC00005D0013BDBB21370002B00D100BEB14A2D
:102DD0001378DBB2002B06D0013BDBB21370002B63
:102DE00001D100F0D5FC0422A74B1A700822224022
:102DF00000D161E2A84BA94F1B78DBB29C08E4002C
:102E00001D093C19002D00D0E7E12368626898068F
:102E1000000F01380C2800D9DBE101F05BFB9C01BD
:102E20009C01DA01DA01DA01DA01DA01DA01B7012B
:102E3000DA01DA01DA010D001168536800229848BE
:102E4000984E026001207360974B31602360974C6D
:102E500089B22070964C3A61BA610193A14218D8A8
:102E6000D023DB00994200D3E7E081235B00994245
:102E700000D1C4E006D8802900D1A9E0822900D180
:102E8000ABE0FAE08B4B994200D1C7E0FF33FF3350
:102E90001AE0894B994200D15AE110D888231B01CE
:102EA000994200D18EE08033994200D0E5E03C00A9
:102EB0003D00B278754B20341A70A03508E07F4B86
:102EC000994200D1CEE07E4B994200D1D9E0D4E0C6
:102ED00080222368134203D06068083800F0F0FABB
:102EE0000834AC42F4D100242500764BE058002889
:102EF00005D04368009300F0E3FA0098F7E7714BC0
:102F00001851714BE050714BE058002805D04368D0
:102F1000009300F0D5FA0098F7E76C4B6C4A185113
:102F20006C4BE0506B00D0526B4BE85C02380328CE
:102F300007D801F0C5FA02040204002200E00122D1
:102F40005A5501350434042DCFD100230124634D9B
:102F50002B70634B6349621EE3188A5C9B001A70F6
:102F600008231A4220D000F08DFA6301002805D012
:102F7000FA18083050605C4AFA5003E0F8502B7899
:102F800001332B7000F07EFA0122A3001343DB0013
:102F9000002805D0FA1808305060019AFA5003E072
:102FA000F8502B789B182B7002210023A2001143AC
:102FB000C9007B5003210A438A400134BB50052CD1
:102FC000C7D1A0E0314B494C1B78237003009BE034
:102FD000464C02232270627096E07F23B1880B403A
:102FE000042B4AD8414C9B0022706270404A9B18C7
:102FF0001A7802231A4200D186E0207084E07F23F1
:10300000B2881A40042A38D87388002B35D10220A0
:10301000374992005218117881432CE07F23B288FF
:103020001A40042A29D87388002B26D1022030495F
:1030300092005218117801431DE07288B1882D4B1F
:103040005C68002C19D01888904209D158888842B1
:1030500006D1120A032A01D1237855E01B8953E0D7
:103060000C33EDE7B388002B4CD1234A1168234A77
:103070001160B178224A117045E00F221C4B1A7082
:1030800066E000233FE0C046802007405F03002049
:10309000E9020020610300209020074000F8FF1F94
:1030A000800200204C030020C80040006003002084
:1030B0008106000002030000212000002122000000
:1030C00021230000D8020020840200202C030020CD
:1030D000A00300203C03002094020020560300209F
:1030E00030C80110F49E0000880040005703002003
:1030F000C0200740F89E00007C020020B0030020A2
:103100007003002013001C00F5889D4200D91D00AB
:103110002E00402D00D9402620003100FFF77CFD15
:10312000A419AD1B03D12F00402E04D010E040277E
:10313000AF4200D92F0020003900FFF76DFDE419E0
:10314000ED1B01D1402F03D1774B1C60774B1D80C5
:103150000122774B3CE0774B77491888884212D19F
:103160009B88002B0BD17549D05CC8540133072BC9
:10317000FAD10B68862B02D10F22714B1A700021F5
:103180000800FFF749FD6F4B236022E0664F3E6861
:10319000002E13D0654B1C882500402C00D94025FB
:1031A00029003000FFF738FD641B604BA4B21C807F
:1031B000002C01D1402D00D174193C60A0225D4B40
:1031C000D2001988914204D100225A709A785E4B3D
:1031D0001A700122564B1A706AE008226068013D9D
:1031E0000838EDB2134037D000F06AF95749A8000B
:1031F0004258574B002A1CD0566846501100585D63
:103200000831616003280BD801F05AF9020406085E
:10321000032104E0022102E0052100E004215955C8
:103220000821C8230C4200D1403B128812041343EA
:103230003DE0585D032808D801F042F93A3A02040B
:10324000002200E001225A5532E008221440621E9A
:10325000944102345C552BE02268110C8AB2028042
:1032600000291ED03B4943804360AB005F583A4E73
:10327000002F01D1585001E0F158486037496D00E6
:10328000F0506B5AD2186A5200F0FCF8002802D0B5
:103290000830606005E0324A206013780133137013
:1032A00006E008231C4201D12E4B00E0254B236091
:1032B00008222D4B1A7074E5012004421ED002230F
:1032C0001B49284C0B70294B294E1A70294B1C6046
:1032D0009C60294C1A61DC600D249A615E60274B6A
:1032E0001C70FF23264C2370174C2B702270254A2C
:1032F00013709F22244B1A70087013E063B2002BE6
:1033000004DA0D221D4B1A7080232B700222144206
:1033100004D01B490B78DBB20B702A7010231C42BF
:1033200000D02B70F7BDC04680020020540300205F
:10333000942007404C03002021200000A803002017
:10334000E9020020C8004000982007402C0300201C
:1033500094020020D802002084020020A003002054
:10336000560300208800400080200740E80200202B
:103370009802002000F8FF1FEC020020C020074048
:10338000882007408C2007408420074010B500F0BB
:103390003BFB002211001B4BD150981808324160B2
:1033A000A02AF9D180201849C0020A6802430A60A5
:1033B0001A0A1649D2B20A701A0C1549D2B20A700A
:1033C000144A1B0E1370FF23134A00201370134A74
:1033D00013491370134A137001220A7012490870BE
:1033E00012490A70124A116899430B0070210B436D
:1033F000136080220F4B52041A6010220E4B1A7079
:1034000010BDC04600F8FF1F348004409C200740D8
:10341000B0200740B42007408020074088200740A4
:1034200094200740102007400021074084200740D7
:1034300018E400E000E100E00821074010B500F0CA
:10344000BFF810BD10B500F08BF810BD10B500F03E
:103450005FF810BD10B500F0A3F810BD10B500F076
:1034600069F910BD10B500F03FF910BD10B50800A6
:10347000110000F0BFF810BD10B5080000F02AF9E7
:1034800010BDFFFF70B572B60B4D2C68200001F027
:1034900019FA0B2802DD62B600200CE080231B061F
:1034A000C3409C432C6062B648235843034B181812
:1034B00000230360436070BD24FEFF1FC0F9FF1F9F
:1034C00010B504000E484821201A01F00DF80B2811
:1034D00014D80C4B1B78002B07D00B4B1B78002B00
:1034E00003D02000FFF7E2FB08E072B680231B0642
:1034F000C340064A11680B43136062B610BDC04654
:10350000C0F9FF1F560300205F03002024FEFF1FA9
:1035100070B5114D2B68002B0CD0286843885A1CBD
:10352000C3181C7A03889A4212D3FFF7C9FF0023FD
:103530002B600EE0094B1B78002B02D1012040428A
:1035400008E00320FFF786FB28600028E5D1F5E7B7
:103550004280200070BDC0466C0300205F03002045
:1035600010B50D4C2368002B03D02268002A0ED121
:1035700003E00A4B1B78002B02D10120404209E0F6
:103580000320FFF767FB20600028EED1F5E75388A2
:10359000D318187A10BDC0466C0300205F030020CA
:1035A000054B9888054B1A68002A03D01388528867
:1035B0009B1AC0187047C046A00300206C0300206F
:1035C00010B50A4B1B78002B0FD0094C206800283F
:1035D00003D0FFF775FF002323600320FFF73AFBBA
:1035E000002802D0FFF76CFFF7E710BD5F03002053
:1035F0006C030020314A0123F0B50C00170085B0A0
:103600000190029113700393002C53D02C4D2B6822
:10361000002B25D12B4E2C4B1B78DBB2002B01D17C
:103620003B7017E00420FFF72FFB072809D86B46F3
:103630001B7B3B70FFF726FF214B186000280FD142
:103640003870013E214B002E02D01A78002A04D097
:1036500001221A70012040422EE000F0BDF8DAE7A6
:1036600000221A4B29681A7040234A88981A2300AE
:10367000844200D90300080008308018D2184A801C
:103680000022E41A934204D0019EB65C86540132B3
:10369000F8E7019AD31801934B883F2B06D94023B2
:1036A00004200B80FFF73EFB00232B600522084B14
:1036B0001A70A9E702983C7005B0F0BD62030020C3
:1036C00064030020097500005F03002068030020E8
:1036D0006103002007B56B46D8710733012118003C
:1036E000FFF788FF0EBDFFFF012370B50E4C0F4D95
:1036F00023702B68002B10D10D4B1B78002B02D1AF
:10370000002020700FE00420FFF7BEFA0728F7D84A
:10371000FFF7B8FE28600028F2D02B6858884023B5
:10372000181A0023237070BD620300206403002078
:103730005F030020F7B5124B1B78002B1FD001262A
:10374000104F114B3C681E700193104D002C09D096
:1037500000262E706388210023800420FFF7E2FA00
:103760003E6009E0FFF78EFE011E04D004202C709D
:10377000FFF7D8FA00E02E700023019A1370F7BD0E
:103780005F03002064030020620300206103002027
:1037900070B50E4B1C78E4B2002C15D10C4D296885
:1037A000002906D04B8804200B80FFF7BBFA2C6061
:1037B0000AE0FFF767FE011E03D00420FFF7B2FA0C
:1037C00002E00122034B1A7070BDC0466203002064
:1037D0006403002061030020F8B52F4C2278002AF2
:1037E00058D02E4E3378002B54D1013333701A4207
:1037F0000DD0FFF7D5FE002801D000F003F9284BCB
:103800001B78002B03D00122237893432370237865
:103810009B0712D50025234B1B78AB420DD9224BB9
:10382000AA00D7583B6838001B699847002801D088
:103830003B6998470135EDB2EDE7002333702378FB
:103840005B0727D519490B68002B23D0EFF30583BD
:10385000002B1FD1EFF3108272B60868002803D046
:10386000134C2578002D03D0002A13D162B611E045
:103870000123237043690B60002B01D09D6101E09F
:103880000C490B60002A00D162B600258368457799
:1038900098472570F8BDC04628FEFF1F7103002021
:1038A0002BFEFF1F940300208803002080030020CC
:1038B000840300207C030020EFF3108072B64342A3
:1038C0005841C0B27047002800D062B67047FFFF71
:1038D00010B5FFF7F1FF0C4A1468002C10D0636993
:1038E0001360002B02D000229A6101E0074A1360A6
:1038F000FFF7E9FF002320006377A3689847E8E714
:10390000FFF7E1FF10BDC0467403002078030020DC
:1039100010B5FFF7DDFF10BD024A136801331360D5
:103920007047C0467C0200201B4B1C4A19781C4B78
:10393000082901D1002102E00A2903D12E311160AA
:10394000132206E00C2901D1283100E03C2111604E
:1039500012221A60134B1A78134B002A01D000224E
:1039600000E001221A60114B1A78114B012A01D88C
:1039700080220CE0042A01D8842208E0082A01D819
:10398000852204E0102A01D8862200E087221A60EE
:103990000122084B1A70704729FEFF1F08B0034030
:1039A0000CB003409603002020B003402AFEFF1F06
:1039B00024B003409503002080210D4A09061368B6
:1039C0000B4313600B4B1A780B4B002A01D1D032FA
:1039D00000E090221A70094B984201DD180002E0C5
:1039E000C343DB171840064B00B218807047C0462F
:1039F0003C8004409603002021F00340FF0F0000AC
:103A000000F003407047FFFF30B585B072B67022FA
:103A10004121154B1A70154A1170154A323911702F
:103A200080221A701A7852B2002AFBDA114B1868F9
:103A300062B6114B984201D80A23584301AC0A22BE
:103A40002100FEF75DFE00230C48E15C0500002923
:103A500005D05A008218013351800A2BF5D1013369
:103A60005B002B7005B030BD000002400700024033
:103A700006000240080002407F969800B4FEFF1F37
:103A80000B0010B50100180003F0AEFC10BD10B51E
:103A90000121FDF753FD10BDF0B58DB0079312ABBA
:103AA0001B88049001933E4B06911B6817000993F5
:103AB000099B03934300DBB202931300202A00DD2D
:103AC000202300263500DBB20593BE423DD26A4674
:103AD000344B127A344C1A700122344B06991A7006
:103AE0000122334B20001A70FDF79AFB2000FFF7EC
:103AF000CEFF6A462B4B127A20001A7001222B4B04
:103B00001A7001222A4B1A70BA1B1F2A00DD2022CC
:103B100001230499D2B2FDF78DFD39239C46224939
:103B20008C4463461A780B0038331B789A421DD0B8
:103B3000019800281ED01A48039C00680A900A9831
:103B4000001B019CA04215D310E0019B002B23D049
:103B5000134B039A1B680B930B9B9B1A019A93427E
:103B60001AD3AF4218DD01256D4215E0059BF3180D
:103B7000DEB2AAE7079840199A4207D95C1C2200D6
:103B80000C4C2270084AD3181B7E01E001235B42D3
:103B900003706B1C5DB2C4E728000DB0F0BDC046D9
:103BA0007C02002063FDFF1F28FDFF1F86FDFF1F15
:103BB00085FDFF1F60FDFF1F07B500931300012265
:103BC000FFF76AFF0EBDF7B516006A461F0008AB87
:103BD00010CBD51D1B882A00FFF7EEFF002809D067
:103BE0000123BB40F61B0136013BB3402A7813404A
:103BF00033412370FEBDFFFF70B5104C1D00230044
:103C0000160040003B332200187001235E3213700F
:103C1000220020005D321370FDF702FBAE19B542A1
:103C200005D029782000FDF7FBFA0135F7E72000E1
:103C3000FFF72DFF43425841C0B270BD28FDFF1F62
:103C400007B56B4607331A700122FFF7D5FF0EBD8B
:103C5000F0B585B01700019302AA0C4BD41D1B8848
:103C600022000E000500FFF7A7FF0123019922782B
:103C7000BB40002902D01A43D2B200E09A4331007F
:103C800028002270FFF7DCFF05B0F0BDCAFEFF1F61
:103C9000F0B585B01F000AAB1B780092019302AA11
:103CA000104BD41D1B88220005000E00FFF784FF77
:103CB00003000020834212D00122BA40009B0199E8
:103CC000DB1B01339940013A9A40CBB2217828009E
:103CD00091431A400A4331002270FFF7B1FF05B04B
:103CE000F0BDC046CAFEFF1F70B5134C1D00230077
:103CF000160040003B332200187001235E3213701F
:103D0000220020005D321370FDF78AFA7600AE19AA
:103D1000B5420AD029882000090AFDF781FA2978DE
:103D20002000FDF77DFA0235F2E72000FFF7AFFE35
:103D300043425841C0B270BD28FDFF1F07B56B4616
:103D400006331A800122FFF7CFFF0EBD10B500F039
:103D500061F810BDF0B546464F46C0B48DB00400C2
:103D60000D0000F013F9294B009001911B785BB214
:103D70009846013312D022002B002000290003F0C6
:103D80007DF98146002809D10026002732003B003A
:103D90002000290000F034FD002806D10098019988
:103DA0000DB00CBC90469946F0BD01230293184B10
:103DB0000694079503934B460A934346049405954E
:103DC000002B15D03B0032003000390001F064FFB9
:103DD000434608900991022B0CD103F013FB2123D9
:103DE00003600A9B0093002B0AD108980999D7E732
:103DF0000896099702A800F061FB0028F1D1ECE7D2
:103E000003F000FB0A9B00930360EEE7CCFEFF1F6C
:103E10004C9F0000F8B515004F4646465A001C005E
:103E20006B42C0B42B434B4F5208DB0F8846134301
:103E3000BB423AD84B005B0899464E464342034387
:103E4000DB0F3343BB4230D8434BE3182B4343D003
:103E50000226A3171E40CB0F1E434B4603432ED012
:103E600013002B4332D0BA4241D0B9452ED04B4635
:103E70009A1A12153C2A32DC002C55DB2A0023004A
:103E800001F00AFF00F016FB00F076F9012E46D093
:103E9000022E39D0002E0ED0304A314B02F09AFD5E
:103EA000304A314B02F096FD05E002000B0028007D
:103EB000210001F0C5FB0CBC90469946F8BD022ECE
:103EC00010D0032EF7D127482849F4E74346254868
:103ED000002B0ADB2649EEE700F04EF9EBE721481C
:103EE0002349D3E71F482049E5E72249E3E7914505
:103EF0001FD0022EF6D0032EE5D000200021012E87
:103F0000D9D180210906D6E7144A154B02F062FD8B
:103F100002000B001348144902F05CFDCBE780243B
:103F200024060B191900C6E73C32A7DA002000214D
:103F3000ACE7022E06D0032E09D00A48012E04D089
:103F40000D49B8E70D480E49B5E70E49B3E70B48F0
:103F50000D49B0E70000F07F000010C0075C14338B
:103F600026A6A13C182D4454FB210940FB2109C081
:103F7000FB21F93FFB21F9BFFB21E93FD221337F30
:103F80007CD90240FB21E9BF7CD902C0F0B556467E
:103F90004D4644465F46754BF0B40A000D001900CB
:103FA00083B0060004002940994200D1BAE0002DF8
:103FB00000DC94E02D1500D1A3E06D4B12039C466C
:103FC0008023120B5B0365441A43EB0700D581E0A5
:103FD0006B109846E30F9B189B1880221621002631
:103FE000002764009203B818984202DC87181B1A55
:103FF000B618E00F5B0001391B1864005208002955
:10400000F1D100220192944680221206202091468E
:1040100009E09F4241D0E10FC9180138CB18640074
:10402000520800281ED0614651189F42F1DA8D18BF
:10403000AC46CD0FED07BA464D4539D0DB1B8C425F
:10404000BF417F42DB1B641A019901388B469344C0
:1040500059460191E10FC9185746CB186400520820
:104060000028E0D123432BD1019B5B08414972100A
:104070008C466244F10702D5802109060B43414674
:1040800009058D181E002F003000390003B03CBC1C
:1040900090469946A246AB46F0BDA1420ED88D1877
:1040A000AC46CD0FED074D4548D09A460023CAE7F0
:1040B0006546002DC2DB7D1CAA46BFE73B00AAE790
:1040C000019B01333ED0019A01239446134063447F
:1040D0005B08CBE7E30F52009A18640078E76B00A7
:1040E0005B0803432F00002BCED00025002A31D1DE
:1040F000E20A153D6405002AFAD080235B031A42C8
:1041000023D180200023400300E00B005200591C03
:104110000242FAD02020401AED1A2300C3408C40FE
:104120001A434AE702002B00290002F0D9F93200B5
:104130002B0001F085FA06000F00A5E76546002D6B
:10414000B9DAB2E70136002390E7012320205B4271
:104150000021E1E73B000200390002F03BFC0200D5
:104160000B0001F099FD06000F008DE70000F07FC5
:1041700001FCFFFF0000E03FF8B556464D464446BF
:104180005F46A54BF0B44E00804689468A467608C5
:104190009E420CDDA14B9E4200DDA0E000D19BE0E1
:1041A0005346002B00DCE3E09D4B9E4A9FE09E4B74
:1041B0009E4200DDB1E09D4B9E4200DC9FE001236A
:1041C0005B429B4642464B464046494602F088F9D0
:1041D00002000B0006000F0002F082F904000D003F
:1041E000934A944B02F07CF9934A944B01F028FADD
:1041F00022002B0002F074F9914A924B01F020FA50
:1042000022002B0002F06CF98F4A904B01F018FA53
:1042100022002B0002F064F98D4A8E4B01F010FA57
:1042200022002B0002F05CF98B4A8C4B01F008FA5B
:1042300032003B0002F054F9894A8A4B06000F0015
:104240002000290002F04CF9874A884B02F0C2FB9B
:1042500022002B0002F044F9854A864B02F0BAFB9B
:1042600022002B0002F03CF9834A844B02F0B2FB9F
:1042700022002B0002F034F9814A824B02F0AAFBA3
:1042800022002B0002F02CF90B00594602000131EC
:1042900000D170E059463000CC00390001F0D0F96F
:1042A00042464B4602F01CF9774D784B2D191C19EC
:1042B0002268636802F08EFB42464B4602F08AFB9E
:1042C00002000B002868696802F084FB53460A006C
:1042D000002B48DB03000AE0002800D160E74246DB
:1042E0004B464046494601F0ABF903000A0018006E
:1042F00011003CBC90469946A246AB46F8BD644AC4
:10430000644B01F09DF90022634B00F08DFA002808
:1043100000D154E743464A46E9E700F0CBF85F4B4B
:1043200004000D009E4237DC5D4B9E425DDC0200C6
:104330000B0001F085F90022574B02F04BFB802364
:1043400006000F000022DB052000290001F078F9AB
:104350000B0002003900300001F09EFC0023804673
:1043600089469B462EE78022120603008A18BEE784
:104370002B4B4C4ABBE73000390001F061F9424653
:104380004B4602F0ADF802000B004046494602F0F1
:1043900021FB03000A00AAE7434B9E421ADC0022DD
:1043A000424B02F017FB002206000F003F4B20009B
:1043B000290002F095F80022374B01F041F90B007B
:1043C00002003900300001F067FC02238046894674
:1043D0009B46F7E60B0002003549002001F05CFC2B
:1043E0000323804689469B46ECE600222A4B02F0D6
:1043F000F1FA002206000F00274B2000290001F0EF
:104400001FF90B0002003900300001F045FC0123C8
:10441000804689469B46D5E6FFFF0F440000F07FAB
:10442000182D4454FB21F93FFFFFDB3FFFFF1F3EE8
:1044300011DA22E33AAD903FEB0D76244B7BA93F96
:10444000513DD0A0660DB13F6E204CC5CD45B73F64
:10445000FF8300922449C23F0D5555555555D53F10
:104460002F6C6A2C44B4A2BF9AFDDE522DDEAD3F04
:104470006D9A74AFF2B0B33F711623FEC671BC3FA4
:10448000C4EB98999999C93F789F0000589F000004
:104490009C7500883CE4377E0000F03FFFFFF23F50
:1044A000FFFFE53FFB21F9BFFF7F03400000F83F1E
:1044B0000000F0BF49004B0819007047002070470A
:1044C00002B4714649084900095C49008E4402BCA7
:1044D0007047C04603B47146490840004900095A74
:1044E00049008E4403BC7047002243088B4274D3BA
:1044F00003098B425FD3030A8B4244D3030B8B42E5
:1045000028D3030C8B420DD3FF22090212BA030CED
:104510008B4202D31212090265D0030B8B4219D3CE
:1045200000E0090AC30B8B4201D3CB03C01A5241EE
:10453000830B8B4201D38B03C01A5241430B8B4236
:1045400001D34B03C01A5241030B8B4201D30B031F
:10455000C01A5241C30A8B4201D3CB02C01A524146
:10456000830A8B4201D38B02C01A5241430A8B4209
:1045700001D34B02C01A5241030A8B4201D30B02F2
:10458000C01A5241CDD2C3098B4201D3CB01C01A0C
:10459000524183098B4201D38B01C01A5241430916
:1045A0008B4201D34B01C01A524103098B4201D304
:1045B0000B01C01A5241C3088B4201D3CB00C01A71
:1045C000524183088B4201D38B00C01A52414308E9
:1045D0008B4201D34B00C01A5241411A00D201460E
:1045E000524110467047FFE701B5002000F0F0F897
:1045F00002BDC0460029F7D076E7704703460B435B
:104600007FD4002243088B4274D303098B425FD3CB
:10461000030A8B4244D3030B8B4228D3030C8B42F7
:104620000DD3FF22090212BA030C8B4202D31212DD
:10463000090265D0030B8B4219D300E0090AC30BB2
:104640008B4201D3CB03C01A5241830B8B4201D35F
:104650008B03C01A5241430B8B4201D34B03C01A48
:104660005241030B8B4201D30B03C01A5241C30AC0
:104670008B4201D3CB02C01A5241830A8B4201D331
:104680008B02C01A5241430A8B4201D34B02C01A1B
:104690005241030A8B4201D30B02C01A5241CDD2C0
:1046A000C3098B4201D3CB01C01A524183098B420B
:1046B00001D38B01C01A524143098B4201D34B01F4
:1046C000C01A524103098B4201D30B01C01A524157
:1046D000C3088B4201D3CB00C01A524183088B42DE
:1046E00001D38B00C01A524143088B4201D34B00C7
:1046F000C01A5241411A00D2014652411046704739
:104700005DE0CA0F00D04942031000D3404253403D
:1047100000229C4603098B422DD3030A8B4212D3FD
:10472000FC22890112BA030A8B420CD3890192112F
:104730008B4208D3890192118B4204D389013AD06C
:10474000921100E08909C3098B4201D3CB01C01A41
:10475000524183098B4201D38B01C01A5241430954
:104760008B4201D34B01C01A524103098B4201D342
:104770000B01C01A5241C3088B4201D3CB00C01AAF
:10478000524183088B4201D38B00C01A5241D9D2C7
:1047900043088B4201D34B00C01A5241411A00D248
:1047A0000146634652415B10104601D34042002B44
:1047B00000D54942704763465B1000D3404201B5C3
:1047C000002000F005F802BD0029F8D016E7704778
:1047D0007047C0468446101C62468C46191C6346CE
:1047E00000E0C0461FB501F011FE002801D40021F1
:1047F000C8421FBD10B501F065FD4042013010BD3B
:1048000010B501F003FE002801DB002010BD0120DF
:1048100010BDC04610B501F0F9FD002801DD0020F3
:1048200010BD012010BDC04610B501F08BFD002861
:1048300001DC002010BD012010BDC04610B501F004
:1048400081FD002801DA002010BD012010BDC04606
:104850008446081C6146FFE71FB500F06BFB00288B
:1048600001D40021C8421FBD10B500F0F7FA404244
:10487000013010BD10B500F05DFB002801DB002009
:1048800010BD012010BDC04610B500F053FB00283C
:1048900001DD002010BD012010BDC04610B500F0A4
:1048A00005FB002801DC002010BD012010BDC04622
:1048B00010B500F0FBFA002801DA002010BD01203D
:1048C00010BDC0461C2101231B04984201D3000CDB
:1048D00010391B0A984201D3000A08391B09984273
:1048E00001D30009043902A2105C40187047C04689
:1048F00004030202010101010000000000000000A9
:1049000070B500220C4B04000D00FFF797FF002844
:1049100004D12000290002F0D1FB70BD064B00221B
:104920002000290002F056F802F0C8FB80231B0685
:104930009C466044F1E7C0460000E041F8B54A02F9
:10494000430244004E00C50F240E28009B09360E7A
:10495000C90F92098D4259D0A01B002800DC8DE0C0
:10496000002E1AD1002A00D079E05A0704D00F2275
:104970001A40042A00D004335A0138D50134FF2CE0
:1049800000D189E028009B015B0AE4B25B02E405E8
:104990005B0A2343C0071843F8BDFF2CE5D08021F4
:1049A000C9040A431B2800DD89E016002021C64007
:1049B000081A8240511E8A4132439B1A5A0114D56B
:1049C0009B019E093000FFF77DFF05388640844239
:1049D00065DC041B330020200134E340041BA640A7
:1049E000721E964100243343BFE75A07BFD1DF0848
:1049F0002800FF2C2FD1002F00D187E08022D20386
:104A000013003B435B025B0AFF24BFE7A11B0029A5
:104A100049DD002E29D0FF2CA7D08026F604324392
:104A20001B2900DD8DE017002026CF40711A8A4037
:104A3000511E8A413A439B185A01D6D50134FF2CA6
:104A400064D0012276491A405B080B4013438CE77F
:104A5000031ECAD100207B025B0AE4B296E701384C
:104A60000028AAD0FF2C9DD17FE7002A00D17CE747
:104A700001390029DFD0FF2CD2D176E7002820D1E0
:104A8000601CC0B2012853DD80279E1AFF04374006
:104A90002FD0D61A0D0095E72800002376E7614B4A
:104AA000241A334061E700294DD1611CCEB2012E9A
:104AB0002FDDFF292AD09B185B080C0055E7012247
:104AC0007BE7002C1BD1002B5BD0C04300280CD00F
:104AD000FF2E7ED01B2800DD92E01D002024C54063
:104AE000201A8340581E83412B43D31A34000D00F3
:104AF00064E7002E00D065E700200024ABE7FF2E1E
:104B000067D08024E40440422343E3E7FF240023EA
:104B10003CE7002C61D1002B7ED0002A00D124E795
:104B20009B185A0100D460E73E4A0C0013401CE772
:104B3000002C1ED1002B2FD1002A66D013000D00AF
:104B400013E7012277E7002C1FD1002B5AD0C9436D
:104B500000290BD0FF2E50D01B295FDC1F00202422
:104B6000CF40611A8B40591E8B413B439B18340048
:104B700062E7002B1CD1002A4AD013000D00FF244D
:104B8000F3E6130034000D00EFE6FF2E35D080244D
:104B9000E40449422343DFE7002A00D1E5E6802709
:104BA000981AFF04074000D152E7D31A0D00DCE643
:104BB000FF24002A00D1D8E68020DB08C00303428E
:104BC00004D0D208024201D113000D00DB00FF2403
:104BD000CBE61300FF240D00C7E6002B0DD0FF2409
:104BE000002A00D1C1E68021DB08C9030B42EDD0C9
:104BF000D2080A42EAD11300E8E71300FF24B4E622
:104C0000012372E713003400AFE60027002022E7FB
:104C100080270020FF03F1E61300A6E60123A5E7A5
:104C2000FFFFFF7DFFFFFFFBF0B5564644465F46A2
:104C30004D46F0B444024600C70F83B08846650A6B
:104C4000360EBA463DD0FF2E22D00023EC00802540
:104C500099469B46ED0425437F3E43465C0258003F
:104C6000DB0F640A000E984636D0FF2830D0802330
:104C70000021E400DB041C437F38301A01904846D1
:104C800042460843724E800030587A4013008746EF
:104C9000002D44D108239946063B9B46DDE70122BF
:104CA000FF2000241A406402C305640AD2071C4393
:104CB0001443200003B03CBC90469946A246AB4644
:104CC000F0BD002D20D104239946033B9B46C4E749
:104CD000002C17D1022102E0002C0AD10121321A46
:104CE00001924A4643460A435A48920082587B4002
:104CF00097462000FFF7E6FD431F76309C40404278
:104D00000021BAE70321B8E72800FFF7DBFD431FC6
:104D10009D4000237630464299469B469DE70C23F2
:104D20009946093B9B4698E780240022E403FF2034
:104D3000B9E70024C2468B465A465346022AAED0F3
:104D4000032A7DD0012A31D1012200201A400024FB
:104D5000A9E70122101A1B2856DD1A400020002462
:104D6000A1E78023DB031D424BD18023DB032B43D0
:104D70005C02640A3A00FF2095E76D0160018542FC
:104D800030D2019A0024013A01921B220127290006
:104D900064006D00002901DBA84201D82D1A3C43B4
:104DA000013A002AF3D16A1E95412C4301987F30C5
:104DB0000028CEDD620704D00F222240042A00D052
:104DC0000434220103D5244A019814408030FE287F
:104DD00000DD64E70122A401640AC0B21A4062E760
:104DE0002C00A9E72D1A1A220124CFE76B02BCD5AB
:104DF00000248023DB031C436402640A4246FF2034
:104E000051E71C42B3D1F4E721002022C140101A1F
:104E10008440621E94410C43620704D00F2222405A
:104E2000042A00D00434620104D5012201201A4072
:104E3000002438E70122A401640A1A40002032E766
:104E40008023DB031C436402640A5246FF202AE7E6
:104E5000989F0000D89F0000FFFFFFF7430270B546
:104E600042004C005D0AC30F4802120E460A240E8F
:104E7000C90FFF2A0FD0FF2C11D00120A24200D071
:104E800070BDB542FCD18B420DD0002AF8D128006C
:104E9000431E9841F4E70120002DF1D1EBE70120FA
:104EA000002EEDD1E9E70020EAE7C0464302F0B565
:104EB00042005D0AC30F4802440A4800120E000E69
:104EC000C90FFF2A1FD0FF2822D0002A09D16E4225
:104ED0006E4100280FD1002C0DD10020002D09D0EB
:104EE00005E0002801D1002C01D08B4213D058429C
:104EF00001231843F0BD002EF7D048424141012064
:104F000049420843F6E7002DDDD002204042F1E798
:104F1000002CDAD0F9E78242E9DC04DBA542E6D8CE
:104F20000020A542E6D25842434101205B4218438B
:104F3000E0E7C0464302F0B542004C005E0AC30FF2
:104F40004802120E450A240EC90FFF2A17D0FF2C63
:104F500019D0002A0BD170427041002C17D00028C4
:104F600007D048424141012049420843F0BD002C8E
:104F700013D08B4214D0584201231843F6E7022085
:104F8000002EF3D1E3E70220002DEFD1E1E7002D61
:104F9000E5D10020002EE9D0EDE7002DE9D1EAE7C8
:104FA000A242E8DC04DBAE42E5D80020AE42DDD20E
:104FB0005842434101205B421843D7E7F0B55746BA
:104FC0004E4645464300E0B446028846760A1F0E28
:104FD000C40F002F47D0FF2F25D0002380259A46ED
:104FE0009946F600ED042E437F3F434642465D025C
:104FF000D20F5B006D0A1B0E904640D0FF2B39D0BC
:1050000080220020ED00D20415437F3BFB1842466E
:105010005746591C62408C4607430F2F5CD86F4996
:10502000BF00C9598F46002E45D108239A46063B3A
:105030009946DAE7424602282DD0032800D1C3E082
:10504000012800D0A2E0002500260240D4B276025A
:10505000ED05760A2E43E407264330001CBC90463B
:105060009946A246F0BD002E1AD104239A46033B6E
:105070009946BAE72A00511E8A41901CC6E70120D2
:10508000002DC3D02800FFF71DFC431F76309D4044
:1050900043420020BAE70124FF2514400026D6E74A
:1050A0003000FFF70FFC431F9E400023763047423D
:1050B0009A46994699E70C239A46093B994694E704
:1050C00080260024F603FF25C1E735004846B2E7F5
:1050D000350022004846AEE72904090C0800370CC9
:1050E0003604360C2C0C7943704367437443060C2A
:1050F00064183619B14203D98021490288464744D1
:105100000004000C310409188D01681E8541890EC8
:105110002943350CED19AD010D43290104D50123B7
:1051200069081D4063460D4319007F31002925DDC4
:10513000680704D00F202840042800D00435280137
:1051400003D5274980330D401900FE29A3DC012433
:10515000AD016E0A1440CDB279E78020C00306424B
:1051600007D0054205D128434602760A4446FF256A
:105170006DE706437602760AFF2568E70124611A87
:105180001B2905DD14400025002660E76346CBE7B8
:105190002E002023CE40591A8D406B1E9D412E4378
:1051A000730704D00F233340042B00D0043673015F
:1051B00004D5012401251440002648E70124B60146
:1051C000760A1440002542E780260124F6032E4388
:1051D0007602760A1440FF2539E7C04618A0000081
:1051E000FFFFFFF7F8B54A024E0043024400240EC9
:1051F000C50F9B09360EC90F9209FF2E00D183E01F
:1052000001204140A01BA9425CD0002800DC95E0B1
:10521000002E1CD1002A00D081E05A0704D00F22B2
:105220001A40042A00D004335A013BD50134FF2C24
:1052300000D191E001209B015B0AE4B205405B02D2
:10524000E4055B0AED0723432B431800F8BDFF2C50
:10525000E3D08021C9040A431B2800DD90E016003A
:105260002021C640081A8240511E8A4132439B1AAF
:105270005A0115D59B019E093000FFF723FB053825
:10528000864084426CDC041B330020200134E34060
:10529000041BA640721E964100243343BDE70D0057
:1052A0005A07BCD1DF0801231D40FF2C33D1002F4A
:1052B00000D190E08022D20313003B435B025B0AE3
:1052C000FF24BCE700284FDD002E2ED0FF2CA4D0F9
:1052D0008025ED042A431B2800DD97E016002025D9
:1052E000C640281A8240501E824132439B185A0100
:1052F000D5D50134FF2C6DD001227B481A405B08C4
:10530000034013430D0088E7002A00D07AE777E7CF
:10531000031EC5D100257B025B0AE4B28FE701388A
:105320000028A4D0FF2C97D177E7002A00D174E79A
:1053300001380028DAD0FF2CCDD16EE7002821D12A
:10534000601CC0B2012858DD80279E1AFF04374038
:105350002FD0D61A0D008FE701231D4000236EE7E2
:10536000624B241A334058E7002851D1601CC6B262
:10537000012E33DDFF282DD09B185B0804004CE77D
:10538000012274E7002C1AD0FF2E1FD08024E404E1
:10539000404223431B2800DD96E01D002024C54029
:1053A000201A8340581E83412B43D31A34000D002A
:1053B0005EE7002E00D05FE700250024ABE7002B5E
:1053C00044D0C0430028F0D0FF2EE3D11300FF24C7
:1053D0000D0022E70D00FF24002330E7002C5DD1F3
:1053E000002B7DD0002A00D117E79B185A0100D46A
:1053F00056E73E4A040013400FE7002C1ED1002B55
:105400002FD1002A65D013000D0006E701226DE7B9
:10541000002C1FD1002B59D0C04300280BD0FF2EE9
:105420004FD01B285EDC1D002024C540201A83407D
:10543000581E83412B439B18340058E7002B1CD186
:10544000002A49D013000D00FF24E6E613003400C3
:105450000D00E2E6FF2E34D08024E40440422343D2
:10546000DFE7002A00D1D8E68027981AFF0407401A
:1054700000D14DE7D31A0D00CFE6FF24002A00D15A
:10548000CBE68020DB08C003034204D0D2080242EE
:1054900001D113000D00DB00FF24BEE6002B10D06D
:1054A000FF24002A00D1B8E68020DB08C0030342B5
:1054B00003D0D208024200D11300DB000D00FF240C
:1054C000ABE61300FF24A8E601236EE713003400C7
:1054D000A3E6002700251EE780270025FF03E9E655
:1054E00013009AE60123A6E7FFFFFF7DFFFFFFFB06
:1054F0004302590A4300C20F1B0E00207E2B0EDD13
:105500009D2B0DDC802000040143952B0BDC9620A5
:10551000C31AD9400B005842002A00D11800704726
:10552000034BD018FBE7963B99400B00F3E7C046CE
:10553000FFFFFF7F70B5002830D0C317C5185D404E
:10554000C40F2800FFF7BEF99E231B1A962B0DDC13
:105550009622D21A95406A02520AD8B25202C00567
:10556000520AE40702432243100070BD992B19DC54
:105570009922D21A9540124A2A40690704D00F2175
:105580000D40042D00D00432510103D50C4B1A40BC
:105590009F231B1A9201520AD8B2DFE70024002091
:1055A0000022DBE705222E00121AB921D6402A007C
:1055B000C91A8A40551EAA4135001543DBE7C0468B
:1055C000FFFFFFFB70B5041E28D0FFF77BF99E2379
:1055D0001B1A962B0ADC9622D21A94406202520AB7
:1055E000D8B25202520AC005104370BD992B18DC84
:1055F0009922D21A9440114A2240610704D00F2107
:105600000C40042C00D00432510103D50B4B1A403E
:105610009F231B1A9201520AD8B2E2E7002000220F
:10562000DFE705222500121AB921D5402200C91A48
:105630008A40541EA2412C001443DCE7FFFFFFFB0D
:10564000F8B556465F464D464446F0B40F00FD0F90
:10565000AA4609037C002E005F00450F490A7F0D12
:105660002943C5001803BC46400A570F640DDB0FE1
:105670003843D2009A4500D1AAE06646A61B002E08
:1056800000DCFFE06346002B39D10300134300D058
:10569000D9E06B0709D00F232B40042B05D02B1D1D
:1056A000AB42AD416D4249191D000B0200D482E0AE
:1056B000CA4B01349C4200D1FEE00A005646C84B5A
:1056C000ED081A405007640552020543120B640DA1
:1056D000002112030B0D1B056405120B1A4363080E
:1056E000C04CF60714401C4364006408344328008F
:1056F00021003CBC90469946A246AB46F8BDB74B4C
:105700009C42C6D080231B041843382E00DDEBE0FA
:105710001F2E00DD1EE120239B1B9C4603006746D5
:10572000BB40984613004746F3403B436746BA40A8
:10573000571EBA4113430200F240EB1A9D42B64194
:105740001D008A1A7642911B0B0231D54A02560A75
:10575000002E00D1B4E03000FFF7B4F80300083B9E
:105760001F2B00DDB5E020222900D21AD1409E4037
:105770000A009D4032439C4200DDB1E01C1B631CCB
:105780001F2B00DDD5E0202114002800C91A8C4011
:10579000D8408D400443DA40681E854111002543FE
:1057A000002476E74146314300D134E231004546DA
:1057B0006B0700D06FE756464807ED08C908054358
:1057C000864B9C4235D00A036405120B640D7FE7BB
:1057D0006346E31A9B46002B00DC8BE06746002FF4
:1057E0003CD07E4FBC4200D153E780273F04384372
:1057F0005B46382B00DCF7E00243501E824100205C
:10580000D2B253194218AB4289411D00494289184E
:105810000B02CDD5714B01349C4200D13DE10120FA
:105820006F4A6B080A4028401843D50705435108C2
:105830002FE72B000B4300D1CBE180231B030B434D
:105840001A03120B44E7013E002E6DD1AE1AB54289
:105850009B41091A5B42C91A350075E707001743D7
:1058600000D116E701235B429C46E3445B46002BD4
:1058700000D0E0E0AA18AA429B4109185B425918DF
:105880001500C5E7002E75D1661C7605760D012E34
:1058900000DCF3E0AE1AB0464545BF410E1A7F4228
:1058A000F61B370200D48FE0551BAA42B641411ABD
:1058B00076428E1B9A464BE756460022002507E7A4
:1058C0002800FEF7FFFF20300300083B1F2B00DC01
:1058D00049E72A002838824000259C4200DC4DE739
:1058E0003F49E41A1140D4E60243501E8241D3B22C
:1058F000002222E7002B00D0F3E0631C9C465B05EE
:105900005B0D012B00DC9FE0344B9C4500D1C3E0D4
:10591000AA180918AA42804140424118CD075208EE
:10592000154349086446B4E62C4B9C4200D0ECE693
:10593000AFE611001F3CE1400C00202B00D17FE0BE
:105940004021CB1A9A4015436A1E954100212543F8
:1059500000242DE733000700203BDF403B00202ED2
:1059600070D04027BE1BB0400243501E82411343FB
:105970000022E2E6002C4FD0184CA44500D1ABE049
:105980008024240476422143382E00DDDFE01F2EE0
:1059900000DD43E12027BC1BA1460C004F46BC4064
:1059A000A0462C004746F4403C434F46BD406F1E86
:1059B000BD41F1402C43151BAA429241411A52426B
:1059C000891A64469A46BFE641464546314300D0AF
:1059D000BEE6002600240025F2E6C046FF070000D0
:1059E000FFFF7FFFFFFF0F801F2B59DC2027FF1ACF
:1059F000BC46070063469F405B46B9461700DF4040
:105A0000B8464F4643461F4363469A40531E9A4149
:105A10005B463A43D840F4E60C002C435CD0F64396
:105A2000002E55D1551BAA42A441411A6442091BBC
:105A30009A46644688E6964FBC4200D0D8E628E6EF
:105A4000002280E700208FE70B002B43002C00D0C2
:105A5000C2E0002B00D101E10300134300D118E69E
:105A6000AB18AB42B6410918764271180A0200D44D
:105A700009E1884A1D00114064460AE6002C5BD10A
:105A80000E002E4300D08AE00100114300D1C2E095
:105A9000010015009A46FCE56446002100258FE6CA
:105AA00020235B429C46DC4463460700DF405B46A4
:105AB000BC46202B00D1ACE040235F46DB1B984066
:105AC0000243501E8241634613431A00002098E6A9
:105AD0006F4CA44500D057E70100150064469A4674
